{
  "address": "0xE9ec5e1c6956625D2F3e08A46D9f5f4c62B563f7",
  "_format": "hh-sol-artifact-1",
  "contractName": "ProxyLogicV2",
  "sourceName": "contracts/ProxyLogicV2.sol",
  "abi": [
    {
      "inputs": [
        {
          "internalType": "uint256",
          "name": "amount",
          "type": "uint256"
        }
      ],
      "name": "topUpClaimableRewards",
      "outputs": [
        {
          "internalType": "bool",
          "name": "",
          "type": "bool"
        }
      ],
      "stateMutability": "nonpayable",
      "type": "function"
    }
  ],
  "bytecode": "0x608060405234801561001057600080fd5b506105a3806100206000396000f3fe608060405234801561001057600080fd5b506004361061002b5760003560e01c8063ece8f2de14610030575b600080fd5b61004a60048036038101906100459190610311565b610060565b6040516100579190610359565b60405180910390f35b600080821161006e57600080fd5b73cdf7028ceab81fa0c6971208e83fa7872994bee573ffffffffffffffffffffffffffffffffffffffff166323b872dd73be3e95dc12c0ae3fac264bf63ef89ec81139e3df73ec8183891331a845e2dcf5cd616ee32736e2baa4856040518463ffffffff1660e01b81526004016100e7939291906103c4565b602060405180830381600087803b15801561010157600080fd5b505af1158015610115573d6000803e3d6000fd5b505050506040513d601f19601f820116820180604052508101906101399190610427565b50600073cdf7028ceab81fa0c6971208e83fa7872994bee573ffffffffffffffffffffffffffffffffffffffff1663dd62ed3e73ec8183891331a845e2dcf5cd616ee32736e2baa473ea7ca290c7811d1cc2e79f8d706bd05d8280bd376040518363ffffffff1660e01b81526004016101b3929190610454565b60206040518083038186803b1580156101cb57600080fd5b505afa1580156101df573d6000803e3d6000fd5b505050506040513d601f19601f820116820180604052508101906102039190610492565b90506000838261021391906104ee565b905073cdf7028ceab81fa0c6971208e83fa7872994bee573ffffffffffffffffffffffffffffffffffffffff1663095ea7b373ea7ca290c7811d1cc2e79f8d706bd05d8280bd37836040518363ffffffff1660e01b8152600401610278929190610544565b602060405180830381600087803b15801561029257600080fd5b505af11580156102a6573d6000803e3d6000fd5b505050506040513d601f19601f820116820180604052508101906102ca9190610427565b50600192505050919050565b600080fd5b6000819050919050565b6102ee816102db565b81146102f957600080fd5b50565b60008135905061030b816102e5565b92915050565b600060208284031215610327576103266102d6565b5b6000610335848285016102fc565b91505092915050565b60008115159050919050565b6103538161033e565b82525050565b600060208201905061036e600083018461034a565b92915050565b600073ffffffffffffffffffffffffffffffffffffffff82169050919050565b600061039f82610374565b9050919050565b6103af81610394565b82525050565b6103be816102db565b82525050565b60006060820190506103d960008301866103a6565b6103e660208301856103a6565b6103f360408301846103b5565b949350505050565b6104048161033e565b811461040f57600080fd5b50565b600081519050610421816103fb565b92915050565b60006020828403121561043d5761043c6102d6565b5b600061044b84828501610412565b91505092915050565b600060408201905061046960008301856103a6565b61047660208301846103a6565b9392505050565b60008151905061048c816102e5565b92915050565b6000602082840312156104a8576104a76102d6565b5b60006104b68482850161047d565b91505092915050565b7f4e487b7100000000000000000000000000000000000000000000000000000000600052601160045260246000fd5b60006104f9826102db565b9150610504836102db565b9250827fffffffffffffffffffffffffffffffffffffffffffffffffffffffffffffffff03821115610539576105386104bf565b5b828201905092915050565b600060408201905061055960008301856103a6565b61056660208301846103b5565b939250505056fea264697066735822122010baa8476cf2530f3d85e0fe30acc83551c5e1e98eb395163ccaf6f3311c9cfb64736f6c63430008090033",
  "linkReferences": {},
  "deployedLinkReferences": {}
}