{
  "address": "0xa604C363d44e04da91F55E6146D09ecDD004f678",
  "_format": "hh-sol-artifact-1",
  "contractName": "ProxyLogicV1",
  "sourceName": "contracts/ProxyLogicV1.sol",
  "abi": [
    {
      "inputs": [
        {
          "internalType": "address",
          "name": "token",
          "type": "address"
        },
        {
          "internalType": "address",
          "name": "spender",
          "type": "address"
        },
        {
          "internalType": "uint256",
          "name": "amount",
          "type": "uint256"
        }
      ],
      "name": "approve",
      "outputs": [
        {
          "internalType": "bool",
          "name": "",
          "type": "bool"
        }
      ],
      "stateMutability": "nonpayable",
      "type": "function"
    },
    {
      "inputs": [
        {
          "internalType": "address",
          "name": "spender",
          "type": "address"
        },
        {
          "internalType": "uint256",
          "name": "amount",
          "type": "uint256"
        }
      ],
      "name": "approveT",
      "outputs": [
        {
          "internalType": "bool",
          "name": "",
          "type": "bool"
        }
      ],
      "stateMutability": "nonpayable",
      "type": "function"
    },
    {
      "inputs": [
        {
          "internalType": "address",
          "name": "token",
          "type": "address"
        },
        {
          "internalType": "address",
          "name": "to",
          "type": "address"
        },
        {
          "internalType": "uint256",
          "name": "amount",
          "type": "uint256"
        }
      ],
      "name": "transfer",
      "outputs": [
        {
          "internalType": "bool",
          "name": "",
          "type": "bool"
        }
      ],
      "stateMutability": "nonpayable",
      "type": "function"
    },
    {
      "inputs": [
        {
          "internalType": "address",
          "name": "token",
          "type": "address"
        },
        {
          "internalType": "address",
          "name": "from",
          "type": "address"
        },
        {
          "internalType": "address",
          "name": "to",
          "type": "address"
        },
        {
          "internalType": "uint256",
          "name": "amount",
          "type": "uint256"
        }
      ],
      "name": "transferFrom",
      "outputs": [
        {
          "internalType": "bool",
          "name": "",
          "type": "bool"
        }
      ],
      "stateMutability": "nonpayable",
      "type": "function"
    },
    {
      "inputs": [
        {
          "internalType": "address",
          "name": "to",
          "type": "address"
        },
        {
          "internalType": "uint256",
          "name": "amount",
          "type": "uint256"
        }
      ],
      "name": "transferT",
      "outputs": [
        {
          "internalType": "bool",
          "name": "",
          "type": "bool"
        }
      ],
      "stateMutability": "nonpayable",
      "type": "function"
    },
    {
      "inputs": [
        {
          "internalType": "address",
          "name": "from",
          "type": "address"
        },
        {
          "internalType": "address",
          "name": "to",
          "type": "address"
        },
        {
          "internalType": "uint256",
          "name": "amount",
          "type": "uint256"
        }
      ],
      "name": "transferTFrom",
      "outputs": [
        {
          "internalType": "bool",
          "name": "",
          "type": "bool"
        }
      ],
      "stateMutability": "nonpayable",
      "type": "function"
    }
  ],
  "bytecode": "0x608060405234801561001057600080fd5b5061082c806100206000396000f3fe608060405234801561001057600080fd5b50600436106100625760003560e01c806315dacbea1461006757806345e8bcf8146100975780638102292f146100c75780639b0ea99f146100f7578063beabacc814610127578063e1f21c6714610157575b600080fd5b610081600480360381019061007c91906105ef565b610187565b60405161008e9190610671565b60405180910390f35b6100b160048036038101906100ac919061068c565b610222565b6040516100be9190610671565b60405180910390f35b6100e160048036038101906100dc919061068c565b6102cd565b6040516100ee9190610671565b60405180910390f35b610111600480360381019061010c91906106cc565b610378565b60405161011e9190610671565b60405180910390f35b610141600480360381019061013c91906106cc565b610426565b60405161014e9190610671565b60405180910390f35b610171600480360381019061016c91906106cc565b6104be565b60405161017e9190610671565b60405180910390f35b60008473ffffffffffffffffffffffffffffffffffffffff166323b872dd8585856040518463ffffffff1660e01b81526004016101c69392919061073d565b602060405180830381600087803b1580156101e057600080fd5b505af11580156101f4573d6000803e3d6000fd5b505050506040513d601f19601f8201168201806040525081019061021891906107a0565b9050949350505050565b600073cdf7028ceab81fa0c6971208e83fa7872994bee573ffffffffffffffffffffffffffffffffffffffff1663095ea7b384846040518363ffffffff1660e01b81526004016102739291906107cd565b602060405180830381600087803b15801561028d57600080fd5b505af11580156102a1573d6000803e3d6000fd5b505050506040513d601f19601f820116820180604052508101906102c591906107a0565b905092915050565b600073cdf7028ceab81fa0c6971208e83fa7872994bee573ffffffffffffffffffffffffffffffffffffffff1663a9059cbb84846040518363ffffffff1660e01b815260040161031e9291906107cd565b602060405180830381600087803b15801561033857600080fd5b505af115801561034c573d6000803e3d6000fd5b505050506040513d601f19601f8201168201806040525081019061037091906107a0565b905092915050565b600073cdf7028ceab81fa0c6971208e83fa7872994bee573ffffffffffffffffffffffffffffffffffffffff166323b872dd8585856040518463ffffffff1660e01b81526004016103cb9392919061073d565b602060405180830381600087803b1580156103e557600080fd5b505af11580156103f9573d6000803e3d6000fd5b505050506040513d601f19601f8201168201806040525081019061041d91906107a0565b90509392505050565b60008373ffffffffffffffffffffffffffffffffffffffff1663a9059cbb84846040518363ffffffff1660e01b81526004016104639291906107cd565b602060405180830381600087803b15801561047d57600080fd5b505af1158015610491573d6000803e3d6000fd5b505050506040513d601f19601f820116820180604052508101906104b591906107a0565b90509392505050565b60008373ffffffffffffffffffffffffffffffffffffffff1663095ea7b384846040518363ffffffff1660e01b81526004016104fb9291906107cd565b602060405180830381600087803b15801561051557600080fd5b505af1158015610529573d6000803e3d6000fd5b505050506040513d601f19601f8201168201806040525081019061054d91906107a0565b90509392505050565b600080fd5b600073ffffffffffffffffffffffffffffffffffffffff82169050919050565b60006105868261055b565b9050919050565b6105968161057b565b81146105a157600080fd5b50565b6000813590506105b38161058d565b92915050565b6000819050919050565b6105cc816105b9565b81146105d757600080fd5b50565b6000813590506105e9816105c3565b92915050565b6000806000806080858703121561060957610608610556565b5b6000610617878288016105a4565b9450506020610628878288016105a4565b9350506040610639878288016105a4565b925050606061064a878288016105da565b91505092959194509250565b60008115159050919050565b61066b81610656565b82525050565b60006020820190506106866000830184610662565b92915050565b600080604083850312156106a3576106a2610556565b5b60006106b1858286016105a4565b92505060206106c2858286016105da565b9150509250929050565b6000806000606084860312156106e5576106e4610556565b5b60006106f3868287016105a4565b9350506020610704868287016105a4565b9250506040610715868287016105da565b9150509250925092565b6107288161057b565b82525050565b610737816105b9565b82525050565b6000606082019050610752600083018661071f565b61075f602083018561071f565b61076c604083018461072e565b949350505050565b61077d81610656565b811461078857600080fd5b50565b60008151905061079a81610774565b92915050565b6000602082840312156107b6576107b5610556565b5b60006107c48482850161078b565b91505092915050565b60006040820190506107e2600083018561071f565b6107ef602083018461072e565b939250505056fea26469706673582212200a004ea1af945c40cdef1a059ef68017872152328ade46ebc88eb1220463b00364736f6c63430008090033",
  "linkReferences": {},
  "deployedLinkReferences": {}
}